{
  "contractName": "bid",
  "abi": [
    {
      "inputs": [
        {
          "internalType": "uint256",
          "name": "timeINMin",
          "type": "uint256"
        }
      ],
      "stateMutability": "nonpayable",
      "type": "constructor"
    },
    {
      "anonymous": false,
      "inputs": [
        {
          "indexed": false,
          "internalType": "string",
          "name": "name",
          "type": "string"
        },
        {
          "indexed": false,
          "internalType": "uint256",
          "name": "price",
          "type": "uint256"
        },
        {
          "indexed": false,
          "internalType": "uint256",
          "name": "id",
          "type": "uint256"
        }
      ],
      "name": "AddItemEvent",
      "type": "event"
    },
    {
      "anonymous": false,
      "inputs": [
        {
          "indexed": false,
          "internalType": "string",
          "name": "name",
          "type": "string"
        },
        {
          "indexed": false,
          "internalType": "uint256",
          "name": "price",
          "type": "uint256"
        },
        {
          "indexed": false,
          "internalType": "uint256",
          "name": "id",
          "type": "uint256"
        }
      ],
      "name": "PurchaseEvent",
      "type": "event"
    },
    {
      "inputs": [
        {
          "internalType": "string",
          "name": "name",
          "type": "string"
        },
        {
          "internalType": "uint256",
          "name": "price",
          "type": "uint256"
        }
      ],
      "name": "AddItem",
      "outputs": [],
      "stateMutability": "nonpayable",
      "type": "function"
    },
    {
      "inputs": [
        {
          "internalType": "uint256",
          "name": "",
          "type": "uint256"
        }
      ],
      "name": "ItemList",
      "outputs": [
        {
          "internalType": "string",
          "name": "name",
          "type": "string"
        },
        {
          "internalType": "uint256",
          "name": "price",
          "type": "uint256"
        },
        {
          "internalType": "bool",
          "name": "available",
          "type": "bool"
        }
      ],
      "stateMutability": "view",
      "type": "function"
    },
    {
      "inputs": [
        {
          "internalType": "uint256",
          "name": "ItemID",
          "type": "uint256"
        }
      ],
      "name": "Purchase",
      "outputs": [],
      "stateMutability": "payable",
      "type": "function"
    },
    {
      "inputs": [],
      "name": "auctionEndTime",
      "outputs": [
        {
          "internalType": "uint256",
          "name": "",
          "type": "uint256"
        }
      ],
      "stateMutability": "view",
      "type": "function"
    },
    {
      "inputs": [],
      "name": "highestBid",
      "outputs": [
        {
          "internalType": "uint256",
          "name": "",
          "type": "uint256"
        }
      ],
      "stateMutability": "view",
      "type": "function"
    },
    {
      "inputs": [],
      "name": "highestBidder",
      "outputs": [
        {
          "internalType": "address",
          "name": "",
          "type": "address"
        }
      ],
      "stateMutability": "view",
      "type": "function"
    },
    {
      "inputs": [
        {
          "internalType": "string",
          "name": "Personal_ID",
          "type": "string"
        }
      ],
      "name": "register",
      "outputs": [],
      "stateMutability": "nonpayable",
      "type": "function"
    },
    {
      "inputs": [],
      "name": "retrieve",
      "outputs": [],
      "stateMutability": "payable",
      "type": "function"
    },
    {
      "inputs": [
        {
          "internalType": "string",
          "name": "Personal_ID",
          "type": "string"
        }
      ],
      "name": "viewAddress",
      "outputs": [
        {
          "internalType": "address",
          "name": "",
          "type": "address"
        }
      ],
      "stateMutability": "view",
      "type": "function"
    },
    {
      "inputs": [],
      "name": "bidAction",
      "outputs": [],
      "stateMutability": "payable",
      "type": "function"
    },
    {
      "inputs": [],
      "name": "withdraw",
      "outputs": [
        {
          "internalType": "bool",
          "name": "",
          "type": "bool"
        }
      ],
      "stateMutability": "nonpayable",
      "type": "function"
    },
    {
      "inputs": [],
      "name": "endAutction",
      "outputs": [],
      "stateMutability": "nonpayable",
      "type": "function"
    },
    {
      "inputs": [],
      "name": "timeTillEnd",
      "outputs": [
        {
          "internalType": "uint256",
          "name": "currentTime",
          "type": "uint256"
        },
        {
          "internalType": "uint256",
          "name": "endTime",
          "type": "uint256"
        }
      ],
      "stateMutability": "view",
      "type": "function"
    }
  ],
  "bytecode": "0x608060405234801561001057600080fd5b506040516116cc3803806116cc8339818101604052602081101561003357600080fd5b810190808051906020019092919050505033600160006101000a81548173ffffffffffffffffffffffffffffffffffffffff021916908373ffffffffffffffffffffffffffffffffffffffff160217905550603c810242016003819055505061162b806100a16000396000f3fe6080604052600436106100c25760003560e01c806391f901571161007f578063cd4eeaf711610059578063cd4eeaf71461036d578063d57bde7914610475578063e2aeb2ae146104a0578063f2c298be146104ce576100c2565b806391f901571461021e578063ba2a22d414610275578063bd8305d41461033b576100c2565b8063214413ca146100c75780632e64cec1146100de5780633ccfd60b146100e85780634b449cba1461011757806375364049146101425780639001994914610214575b600080fd5b3480156100d357600080fd5b506100dc610596565b005b6100e66107ea565b005b3480156100f457600080fd5b506100fd6108af565b604051808215151515815260200191505060405180910390f35b34801561012357600080fd5b5061012c6109d3565b6040518082815260200191505060405180910390f35b34801561014e57600080fd5b506102126004803603604081101561016557600080fd5b810190808035906020019064010000000081111561018257600080fd5b82018360208201111561019457600080fd5b803590602001918460018302840111640100000000831117156101b657600080fd5b91908080601f016020809104026020016040519081016040528093929190818152602001838380828437600081840152601f19601f820116905080830192505050505050509192919290803590602001909291905050506109d9565b005b61021c610b7a565b005b34801561022a57600080fd5b50610233610e09565b604051808273ffffffffffffffffffffffffffffffffffffffff1673ffffffffffffffffffffffffffffffffffffffff16815260200191505060405180910390f35b34801561028157600080fd5b506102ae6004803603602081101561029857600080fd5b8101908080359060200190929190505050610e2f565b604051808060200184815260200183151515158152602001828103825285818151815260200191508051906020019080838360005b838110156102fe5780820151818401526020810190506102e3565b50505050905090810190601f16801561032b5780820380516001836020036101000a031916815260200191505b5094505050505060405180910390f35b34801561034757600080fd5b50610350610f0b565b604051808381526020018281526020019250505060405180910390f35b34801561037957600080fd5b506104336004803603602081101561039057600080fd5b81019080803590602001906401000000008111156103ad57600080fd5b8201836020820111156103bf57600080fd5b803590602001918460018302840111640100000000831117156103e157600080fd5b91908080601f016020809104026020016040519081016040528093929190818152602001838380828437600081840152601f19601f820116905080830192505050505050509192919290505050610f1a565b604051808273ffffffffffffffffffffffffffffffffffffffff1673ffffffffffffffffffffffffffffffffffffffff16815260200191505060405180910390f35b34801561048157600080fd5b5061048a610fac565b6040518082815260200191505060405180910390f35b6104cc600480360360208110156104b657600080fd5b8101908080359060200190929190505050610fb2565b005b3480156104da57600080fd5b50610594600480360360208110156104f157600080fd5b810190808035906020019064010000000081111561050e57600080fd5b82018360208201111561052057600080fd5b8035906020019184600183028401116401000000008311171561054257600080fd5b91908080601f016020809104026020016040519081016040528093929190818152602001838380828437600081840152601f19601f8201169050808301925050505050505091929192905050506111c1565b005b600160009054906101000a900473ffffffffffffffffffffffffffffffffffffffff1673ffffffffffffffffffffffffffffffffffffffff163373ffffffffffffffffffffffffffffffffffffffff1614610659576040517f08c379a000000000000000000000000000000000000000000000000000000000815260040180806020018281038252601a8152602001807f4f6e6c79206f776e65722063616e20656e64207468652042696400000000000081525060200191505060405180910390fd5b6003544210156106d1576040517f08c379a00000000000000000000000000000000000000000000000000000000081526004018080602001828103825260118152602001807f42696420686173206e6f7420656e64656400000000000000000000000000000081525060200191505060405180910390fd5b60001515600560009054906101000a900460ff1615151461075a576040517f08c379a00000000000000000000000000000000000000000000000000000000081526004018080602001828103825260128152602001807f42696420686173206265656e20656e646564000000000000000000000000000081525060200191505060405180910390fd5b6001600560006101000a81548160ff021916908315150217905550600160009054906101000a900473ffffffffffffffffffffffffffffffffffffffff1673ffffffffffffffffffffffffffffffffffffffff166108fc6009549081150290604051600060405180830381858888f193505050501580156107df573d6000803e3d6000fd5b506107e8611330565b565b600160009054906101000a900473ffffffffffffffffffffffffffffffffffffffff1673ffffffffffffffffffffffffffffffffffffffff163373ffffffffffffffffffffffffffffffffffffffff161461084457600080fd5b600160009054906101000a900473ffffffffffffffffffffffffffffffffffffffff1673ffffffffffffffffffffffffffffffffffffffff166108fc479081150290604051600060405180830381858888f193505050501580156108ac573d6000803e3d6000fd5b50565b600080600660003373ffffffffffffffffffffffffffffffffffffffff1673ffffffffffffffffffffffffffffffffffffffff16815260200190815260200160002054905060008111156109ca576000600660003373ffffffffffffffffffffffffffffffffffffffff1673ffffffffffffffffffffffffffffffffffffffff168152602001908152602001600020819055503373ffffffffffffffffffffffffffffffffffffffff166108fc829081150290604051600060405180830381858888f193505050506109c95780600660003373ffffffffffffffffffffffffffffffffffffffff1673ffffffffffffffffffffffffffffffffffffffff1681526020019081526020016000208190555060009150506109d0565b5b60019150505b90565b60035481565b600160009054906101000a900473ffffffffffffffffffffffffffffffffffffffff1673ffffffffffffffffffffffffffffffffffffffff163373ffffffffffffffffffffffffffffffffffffffff1614610a3357600080fd5b600260405180606001604052808481526020018381526020016001151581525090806001815401808255809150506001900390600052602060002090600302016000909190919091506000820151816000019080519060200190610a9892919061152d565b506020820151816001015560408201518160020160006101000a81548160ff02191690831515021790555050507f7c9a9c1f5408c86e0ac8bff92ae8d8b115b2e018d861fd5fb7de6bc5adaf520d82826002805490506040518080602001848152602001838152602001828103825285818151815260200191508051906020019080838360005b83811015610b3a578082015181840152602081019050610b1f565b50505050905090810190601f168015610b675780820380516001836020036101000a031916815260200191505b5094505050505060405180910390a15050565b6009543411610bd4576040517f08c379a00000000000000000000000000000000000000000000000000000000081526004018080602001828103825260238152602001806115d36023913960400191505060405180910390fd5b6003544210610c4b576040517f08c379a00000000000000000000000000000000000000000000000000000000081526004018080602001828103825260098152602001807f42696420656e646564000000000000000000000000000000000000000000000081525060200191505060405180910390fd5b600560019054906101000a900460ff1615610da35760095460066000600860009054906101000a900473ffffffffffffffffffffffffffffffffffffffff1673ffffffffffffffffffffffffffffffffffffffff1673ffffffffffffffffffffffffffffffffffffffff168152602001908152602001600020600082825401925050819055506007600860009054906101000a900473ffffffffffffffffffffffffffffffffffffffff169080600181540180825580915050600190039060005260206000200160009091909190916101000a81548173ffffffffffffffffffffffffffffffffffffffff021916908373ffffffffffffffffffffffffffffffffffffffff16021790555033600860006101000a81548173ffffffffffffffffffffffffffffffffffffffff021916908373ffffffffffffffffffffffffffffffffffffffff16021790555034600981905550610e07565b33600860006101000a81548173ffffffffffffffffffffffffffffffffffffffff021916908373ffffffffffffffffffffffffffffffffffffffff160217905550346009819055506001600560016101000a81548160ff0219169083151502179055505b565b600860009054906101000a900473ffffffffffffffffffffffffffffffffffffffff1681565b60028181548110610e3c57fe5b9060005260206000209060030201600091509050806000018054600181600116156101000203166002900480601f016020809104026020016040519081016040528092919081815260200182805460018160011615610100020316600290048015610ee85780601f10610ebd57610100808354040283529160200191610ee8565b820191906000526020600020905b815481529060010190602001808311610ecb57829003601f168201915b5050505050908060010154908060020160009054906101000a900460ff16905083565b60008042915060035490509091565b600080826040518082805190602001908083835b60208310610f515780518252602082019150602081019050602083039250610f2e565b6001836020036101000a038019825116818451168082178552505050505050905001915050908152602001604051809103902060009054906101000a900473ffffffffffffffffffffffffffffffffffffffff169050919050565b60095481565b806001151560028281548110610fc457fe5b906000526020600020906003020160020160009054906101000a900460ff16151514610fef57600080fd5b60028281548110610ffc57fe5b9060005260206000209060030201600101543414611082576040517f08c379a00000000000000000000000000000000000000000000000000000000081526004018080602001828103825260138152602001807f4e6f74207468652072696768742070726963650000000000000000000000000081525060200191505060405180910390fd5b60006002838154811061109157fe5b906000526020600020906003020160020160006101000a81548160ff0219169083151502179055507f720af453176f3e24f6ab1544aab3c34be38c72c238336d06bc0fb05a9a3cb350600283815481106110e757fe5b90600052602060002090600302016000016002848154811061110557fe5b9060005260206000209060030201600101548460405180806020018481526020018381526020018281038252858181546001816001161561010002031660029004815260200191508054600181600116156101000203166002900480156111ad5780601f10611182576101008083540402835291602001916111ad565b820191906000526020600020905b81548152906001019060200180831161119057829003601f168201915b505094505050505060405180910390a15050565b80600073ffffffffffffffffffffffffffffffffffffffff166000826040518082805190602001908083835b6020831061121057805182526020820191506020810190506020830392506111ed565b6001836020036101000a038019825116818451168082178552505050505050905001915050908152602001604051809103902060009054906101000a900473ffffffffffffffffffffffffffffffffffffffff1673ffffffffffffffffffffffffffffffffffffffff161461128457600080fd5b336000836040518082805190602001908083835b602083106112bb5780518252602082019150602081019050602083039250611298565b6001836020036101000a038019825116818451168082178552505050505050905001915050908152602001604051809103902060006101000a81548173ffffffffffffffffffffffffffffffffffffffff021916908373ffffffffffffffffffffffffffffffffffffffff1602179055505050565b60008090505b60078054905081101561152a576000600660006007848154811061135657fe5b9060005260206000200160009054906101000a900473ffffffffffffffffffffffffffffffffffffffff1673ffffffffffffffffffffffffffffffffffffffff1673ffffffffffffffffffffffffffffffffffffffff168152602001908152602001600020541461151d57600160009054906101000a900473ffffffffffffffffffffffffffffffffffffffff1673ffffffffffffffffffffffffffffffffffffffff166108fc600660006007858154811061140e57fe5b9060005260206000200160009054906101000a900473ffffffffffffffffffffffffffffffffffffffff1673ffffffffffffffffffffffffffffffffffffffff1673ffffffffffffffffffffffffffffffffffffffff168152602001908152602001600020549081150290604051600060405180830381858888f1935050505015801561149f573d6000803e3d6000fd5b50600060066000600784815481106114b357fe5b9060005260206000200160009054906101000a900473ffffffffffffffffffffffffffffffffffffffff1673ffffffffffffffffffffffffffffffffffffffff1673ffffffffffffffffffffffffffffffffffffffff168152602001908152602001600020819055505b8080600101915050611336565b50565b828054600181600116156101000203166002900490600052602060002090601f016020900481019282601f1061156e57805160ff191683800117855561159c565b8280016001018555821561159c579182015b8281111561159b578251825591602001919060010190611580565b5b5090506115a991906115ad565b5090565b6115cf91905b808211156115cb5760008160009055506001016115b3565b5090565b9056fe596f75206d7573742062696420686967686572207468616e2068696768657374426964a264697066735822122001d3319f0403e764c3a5d666e0b04b0d24bf49571df512bea421509a3aece05a64736f6c634300060a0033",
  "immutableReferences": {},
  "source": "// SPDX-License-Identifier: GPL-3.0\n\npragma solidity 0.6.10 ;\nimport './MarketPlace.sol';\n\ncontract bid is MarketPlace{\n    //Who will receive the money selling the product\n    uint public auctionEndTime;\n    uint _biddingTime;\n    bool alreadyEnded;\n    bool alreadyBided;\n    mapping(address => uint) pendingReturns;\n    address [] Bidders;\n\n    address public highestBidder;\n    uint public highestBid;\n    \n    constructor(uint timeINMin) public {\n\n        auctionEndTime = now + timeINMin * 1 minutes;\n    }\n    \n    function bidAction()public payable{\n        require(msg.value>highestBid, \"You must bid higher than highestBid\");\n        require(now<auctionEndTime, \"Bid ended\");\n        \n        //If there's already a bid\n        if(alreadyBided){\n            //Save the last bid's value into pendingReturns\n            pendingReturns[highestBidder]+=highestBid;\n            //save last bidder infomation \n            Bidders.push(highestBidder);\n            \n            highestBidder=msg.sender;\n            highestBid=msg.value;\n        }\n        \n        //If no one bid before \n        else{\n        highestBidder=msg.sender;\n        highestBid=msg.value;\n        alreadyBided=true;\n        }\n    }\n    \n\n    \n    //If someone lose the bid, they can withDraw what they prviously put\n    function withdraw() public returns (bool) {\n        uint amount = pendingReturns[msg.sender];\n        if (amount > 0) {\n            pendingReturns[msg.sender] = 0;\n\n            if (!msg.sender.send(amount)) {\n                pendingReturns[msg.sender] = amount;\n                return false;\n            }\n        }\n        return true;\n    }\n    \n    //Only owner can end the bid\n    function endAutction()public{\n        require(msg.sender==owner, \"Only owner can end the Bid\");\n        require(now>=auctionEndTime, \"Bid has not ended\");\n        require(alreadyEnded==false, \"Bid has been ended\");\n        //Check if function called before \n        alreadyEnded=true;\n        owner.transfer(highestBid);\n        _retreiveAll();\n    }\n    \n    //Take all money that is not withDraw before the bid ends\n    function _retreiveAll ()private{\n        for (uint i=0; i<Bidders.length; i++){\n            if (pendingReturns[Bidders[i]]!=0){\n                //Take the money\n                 owner.transfer(pendingReturns[Bidders[i]]);\n                 pendingReturns[Bidders[i]]=0;\n            }\n        }\n        \n    }\n    \n    //Return howlong until the bid ends\n    function timeTillEnd()public view returns (uint currentTime, uint endTime){\n        currentTime=now;\n        endTime=auctionEndTime;\n    }\n    \n}",
  "sourcePath": "/Users/yuanboli/Documents/GitHub/OneGift/contracts/bid.sol",
  "compiler": {
    "name": "solc",
    "version": "0.6.10+commit.00c0fcaf.Emscripten.clang"
  },
  "schemaVersion": "3.4.3",
  "updatedAt": "2021-08-26T03:25:27.824Z",
  "devdoc": {
    "methods": {}
  },
  "userdoc": {
    "methods": {}
  }
}