{
  "contractName": "MarketPlace",
  "abi": [
    {
      "anonymous": false,
      "inputs": [
        {
          "indexed": false,
          "internalType": "string",
          "name": "name",
          "type": "string"
        },
        {
          "indexed": false,
          "internalType": "uint256",
          "name": "price",
          "type": "uint256"
        },
        {
          "indexed": false,
          "internalType": "uint256",
          "name": "id",
          "type": "uint256"
        }
      ],
      "name": "AddItemEvent",
      "type": "event"
    },
    {
      "anonymous": false,
      "inputs": [
        {
          "indexed": false,
          "internalType": "string",
          "name": "name",
          "type": "string"
        },
        {
          "indexed": false,
          "internalType": "uint256",
          "name": "price",
          "type": "uint256"
        },
        {
          "indexed": false,
          "internalType": "uint256",
          "name": "id",
          "type": "uint256"
        }
      ],
      "name": "PurchaseEvent",
      "type": "event"
    },
    {
      "inputs": [
        {
          "internalType": "uint256",
          "name": "",
          "type": "uint256"
        }
      ],
      "name": "ItemList",
      "outputs": [
        {
          "internalType": "string",
          "name": "name",
          "type": "string"
        },
        {
          "internalType": "uint256",
          "name": "price",
          "type": "uint256"
        },
        {
          "internalType": "bool",
          "name": "available",
          "type": "bool"
        }
      ],
      "stateMutability": "view",
      "type": "function"
    },
    {
      "inputs": [
        {
          "internalType": "string",
          "name": "Personal_ID",
          "type": "string"
        }
      ],
      "name": "register",
      "outputs": [],
      "stateMutability": "nonpayable",
      "type": "function"
    },
    {
      "inputs": [
        {
          "internalType": "string",
          "name": "Personal_ID",
          "type": "string"
        }
      ],
      "name": "viewAddress",
      "outputs": [
        {
          "internalType": "address",
          "name": "",
          "type": "address"
        }
      ],
      "stateMutability": "view",
      "type": "function"
    },
    {
      "inputs": [
        {
          "internalType": "string",
          "name": "name",
          "type": "string"
        },
        {
          "internalType": "uint256",
          "name": "price",
          "type": "uint256"
        }
      ],
      "name": "AddItem",
      "outputs": [],
      "stateMutability": "nonpayable",
      "type": "function"
    },
    {
      "inputs": [
        {
          "internalType": "uint256",
          "name": "ItemID",
          "type": "uint256"
        }
      ],
      "name": "Purchase",
      "outputs": [],
      "stateMutability": "payable",
      "type": "function"
    },
    {
      "inputs": [],
      "name": "retrieve",
      "outputs": [],
      "stateMutability": "payable",
      "type": "function"
    }
  ],
  "bytecode": "0x608060405234801561001057600080fd5b5033600160006101000a81548173ffffffffffffffffffffffffffffffffffffffff021916908373ffffffffffffffffffffffffffffffffffffffff160217905550610c27806100616000396000f3fe6080604052600436106100555760003560e01c80632e64cec11461005a5780637536404914610064578063ba2a22d414610136578063cd4eeaf7146101fc578063e2aeb2ae14610304578063f2c298be14610332575b600080fd5b6100626103fa565b005b34801561007057600080fd5b506101346004803603604081101561008757600080fd5b81019080803590602001906401000000008111156100a457600080fd5b8201836020820111156100b657600080fd5b803590602001918460018302840111640100000000831117156100d857600080fd5b91908080601f016020809104026020016040519081016040528093929190818152602001838380828437600081840152601f19601f820116905080830192505050505050509192919290803590602001909291905050506104bf565b005b34801561014257600080fd5b5061016f6004803603602081101561015957600080fd5b8101908080359060200190929190505050610660565b604051808060200184815260200183151515158152602001828103825285818151815260200191508051906020019080838360005b838110156101bf5780820151818401526020810190506101a4565b50505050905090810190601f1680156101ec5780820380516001836020036101000a031916815260200191505b5094505050505060405180910390f35b34801561020857600080fd5b506102c26004803603602081101561021f57600080fd5b810190808035906020019064010000000081111561023c57600080fd5b82018360208201111561024e57600080fd5b8035906020019184600183028401116401000000008311171561027057600080fd5b91908080601f016020809104026020016040519081016040528093929190818152602001838380828437600081840152601f19601f82011690508083019250505050505050919291929050505061073c565b604051808273ffffffffffffffffffffffffffffffffffffffff1673ffffffffffffffffffffffffffffffffffffffff16815260200191505060405180910390f35b6103306004803603602081101561031a57600080fd5b81019080803590602001909291905050506107ce565b005b34801561033e57600080fd5b506103f86004803603602081101561035557600080fd5b810190808035906020019064010000000081111561037257600080fd5b82018360208201111561038457600080fd5b803590602001918460018302840111640100000000831117156103a657600080fd5b91908080601f016020809104026020016040519081016040528093929190818152602001838380828437600081840152601f19601f8201169050808301925050505050505091929192905050506109dd565b005b600160009054906101000a900473ffffffffffffffffffffffffffffffffffffffff1673ffffffffffffffffffffffffffffffffffffffff163373ffffffffffffffffffffffffffffffffffffffff161461045457600080fd5b600160009054906101000a900473ffffffffffffffffffffffffffffffffffffffff1673ffffffffffffffffffffffffffffffffffffffff166108fc479081150290604051600060405180830381858888f193505050501580156104bc573d6000803e3d6000fd5b50565b600160009054906101000a900473ffffffffffffffffffffffffffffffffffffffff1673ffffffffffffffffffffffffffffffffffffffff163373ffffffffffffffffffffffffffffffffffffffff161461051957600080fd5b60026040518060600160405280848152602001838152602001600115158152509080600181540180825580915050600190039060005260206000209060030201600090919091909150600082015181600001908051906020019061057e929190610b4c565b506020820151816001015560408201518160020160006101000a81548160ff02191690831515021790555050507f7c9a9c1f5408c86e0ac8bff92ae8d8b115b2e018d861fd5fb7de6bc5adaf520d82826002805490506040518080602001848152602001838152602001828103825285818151815260200191508051906020019080838360005b83811015610620578082015181840152602081019050610605565b50505050905090810190601f16801561064d5780820380516001836020036101000a031916815260200191505b5094505050505060405180910390a15050565b6002818154811061066d57fe5b9060005260206000209060030201600091509050806000018054600181600116156101000203166002900480601f0160208091040260200160405190810160405280929190818152602001828054600181600116156101000203166002900480156107195780601f106106ee57610100808354040283529160200191610719565b820191906000526020600020905b8154815290600101906020018083116106fc57829003601f168201915b5050505050908060010154908060020160009054906101000a900460ff16905083565b600080826040518082805190602001908083835b602083106107735780518252602082019150602081019050602083039250610750565b6001836020036101000a038019825116818451168082178552505050505050905001915050908152602001604051809103902060009054906101000a900473ffffffffffffffffffffffffffffffffffffffff169050919050565b8060011515600282815481106107e057fe5b906000526020600020906003020160020160009054906101000a900460ff1615151461080b57600080fd5b6002828154811061081857fe5b906000526020600020906003020160010154341461089e576040517f08c379a00000000000000000000000000000000000000000000000000000000081526004018080602001828103825260138152602001807f4e6f74207468652072696768742070726963650000000000000000000000000081525060200191505060405180910390fd5b6000600283815481106108ad57fe5b906000526020600020906003020160020160006101000a81548160ff0219169083151502179055507f720af453176f3e24f6ab1544aab3c34be38c72c238336d06bc0fb05a9a3cb3506002838154811061090357fe5b90600052602060002090600302016000016002848154811061092157fe5b9060005260206000209060030201600101548460405180806020018481526020018381526020018281038252858181546001816001161561010002031660029004815260200191508054600181600116156101000203166002900480156109c95780601f1061099e576101008083540402835291602001916109c9565b820191906000526020600020905b8154815290600101906020018083116109ac57829003601f168201915b505094505050505060405180910390a15050565b80600073ffffffffffffffffffffffffffffffffffffffff166000826040518082805190602001908083835b60208310610a2c5780518252602082019150602081019050602083039250610a09565b6001836020036101000a038019825116818451168082178552505050505050905001915050908152602001604051809103902060009054906101000a900473ffffffffffffffffffffffffffffffffffffffff1673ffffffffffffffffffffffffffffffffffffffff1614610aa057600080fd5b336000836040518082805190602001908083835b60208310610ad75780518252602082019150602081019050602083039250610ab4565b6001836020036101000a038019825116818451168082178552505050505050905001915050908152602001604051809103902060006101000a81548173ffffffffffffffffffffffffffffffffffffffff021916908373ffffffffffffffffffffffffffffffffffffffff1602179055505050565b828054600181600116156101000203166002900490600052602060002090601f016020900481019282601f10610b8d57805160ff1916838001178555610bbb565b82800160010185558215610bbb579182015b82811115610bba578251825591602001919060010190610b9f565b5b509050610bc89190610bcc565b5090565b610bee91905b80821115610bea576000816000905550600101610bd2565b5090565b9056fea26469706673582212201e96487b3be54dd201ebee44ab9831b16a69a48277374536d960b8bfc04d811f64736f6c634300060a0033",
  "immutableReferences": {},
  "source": "// SPDX-License-Identifier: GPL-3.0\n\npragma solidity 0.6.10;\n\nimport './IDRegistration.sol';\ncontract MarketPlace is IDRegistration{\n    Item []  public ItemList;\n    struct Item{\n        string name;\n        uint price;\n        bool available;\n    }\n    \n    modifier onlyOwner(){\n        require(msg.sender == owner);\n        _;\n    }\n    \n    modifier CheckAvailability(uint id){\n        require( ItemList[id].available == true);\n        _;\n    }\n    function AddItem(string memory name, uint  price) onlyOwner public {\n        ItemList.push(Item(name,price, true));\n        emit AddItemEvent(name, price, ItemList.length);\n        \n    }\n    \n    function Purchase(uint ItemID) CheckAvailability (ItemID)public payable{\n        require(msg.value == ItemList[ItemID].price, \"Not the right price\");\n        ItemList[ItemID].available=false;\n        emit PurchaseEvent(ItemList[ItemID].name, ItemList[ItemID].price, ItemID);\n        \n    }\n    \n    function retrieve ()onlyOwner public payable{\n        owner.transfer(address(this).balance);\n    }\n    \n    event AddItemEvent(string name, uint price, uint id);\n    event PurchaseEvent(string name, uint price, uint id);\n\n\n\n    \n}",
  "sourcePath": "/Users/yuanboli/Documents/GitHub/OneGift/contracts/MarketPlace.sol",
  "compiler": {
    "name": "solc",
    "version": "0.6.10+commit.00c0fcaf.Emscripten.clang"
  },
  "schemaVersion": "3.4.3",
  "updatedAt": "2021-08-26T03:25:27.820Z",
  "devdoc": {
    "methods": {}
  },
  "userdoc": {
    "methods": {}
  }
}