{
  "contractName": "statking",
  "abi": [
    {
      "inputs": [
        {
          "internalType": "contract IERC20",
          "name": "stakingToken",
          "type": "address"
        },
        {
          "internalType": "contract IERC20",
          "name": "MinningToken",
          "type": "address"
        },
        {
          "internalType": "uint256",
          "name": "distributionAmount",
          "type": "uint256"
        }
      ],
      "stateMutability": "nonpayable",
      "type": "constructor"
    },
    {
      "inputs": [],
      "name": "stakingPool",
      "outputs": [
        {
          "internalType": "contract TokenPool",
          "name": "",
          "type": "address"
        }
      ],
      "stateMutability": "view",
      "type": "function"
    },
    {
      "inputs": [],
      "name": "totalStakedAmount",
      "outputs": [
        {
          "internalType": "uint256",
          "name": "",
          "type": "uint256"
        }
      ],
      "stateMutability": "view",
      "type": "function"
    },
    {
      "inputs": [],
      "name": "unlockedPool",
      "outputs": [
        {
          "internalType": "contract TokenPool",
          "name": "",
          "type": "address"
        }
      ],
      "stateMutability": "view",
      "type": "function"
    },
    {
      "inputs": [],
      "name": "totalStaked",
      "outputs": [
        {
          "internalType": "uint256",
          "name": "",
          "type": "uint256"
        }
      ],
      "stateMutability": "view",
      "type": "function"
    },
    {
      "inputs": [],
      "name": "myStakings",
      "outputs": [
        {
          "internalType": "uint256",
          "name": "",
          "type": "uint256"
        }
      ],
      "stateMutability": "view",
      "type": "function"
    },
    {
      "inputs": [],
      "name": "myRewards",
      "outputs": [
        {
          "internalType": "uint256",
          "name": "",
          "type": "uint256"
        }
      ],
      "stateMutability": "view",
      "type": "function"
    },
    {
      "inputs": [
        {
          "internalType": "uint256",
          "name": "amount",
          "type": "uint256"
        }
      ],
      "name": "stake",
      "outputs": [],
      "stateMutability": "nonpayable",
      "type": "function"
    },
    {
      "inputs": [],
      "name": "claim",
      "outputs": [],
      "stateMutability": "nonpayable",
      "type": "function"
    },
    {
      "inputs": [],
      "name": "claimAndUnstake",
      "outputs": [],
      "stateMutability": "nonpayable",
      "type": "function"
    }
  ],
  "bytecode": "0x608060405260006003556000600455624f1a0060065534801561002157600080fd5b50604051611ac1380380611ac18339818101604052606081101561004457600080fd5b8101908080519060200190929190805190602001909291908051906020019092919050505082604051610076906101be565b808273ffffffffffffffffffffffffffffffffffffffff1673ffffffffffffffffffffffffffffffffffffffff168152602001915050604051809103906000f0801580156100c8573d6000803e3d6000fd5b506000806101000a81548173ffffffffffffffffffffffffffffffffffffffff021916908373ffffffffffffffffffffffffffffffffffffffff16021790555081604051610115906101be565b808273ffffffffffffffffffffffffffffffffffffffff1673ffffffffffffffffffffffffffffffffffffffff168152602001915050604051809103906000f080158015610167573d6000803e3d6000fd5b50600160006101000a81548173ffffffffffffffffffffffffffffffffffffffff021916908373ffffffffffffffffffffffffffffffffffffffff16021790555042600581905550806007819055505050506101cb565b6109a28061111f83390190565b610f45806101da6000396000f3fe608060405234801561001057600080fd5b50600436106100935760003560e01c8063567e98f911610066578063567e98f9146101285780637d3c0c6514610146578063817b1cd214610190578063a694fc3a146101ae578063ad004e20146101dc57610093565b80630c56ae3b14610098578063188fdf18146100e257806342a7afe2146101005780634e71d92d1461011e575b600080fd5b6100a06101e6565b604051808273ffffffffffffffffffffffffffffffffffffffff1673ffffffffffffffffffffffffffffffffffffffff16815260200191505060405180910390f35b6100ea61020b565b6040518082815260200191505060405180910390f35b61010861021b565b6040518082815260200191505060405180910390f35b61012661022b565b005b610130610236565b6040518082815260200191505060405180910390f35b61014e61023c565b604051808273ffffffffffffffffffffffffffffffffffffffff1673ffffffffffffffffffffffffffffffffffffffff16815260200191505060405180910390f35b610198610262565b6040518082815260200191505060405180910390f35b6101da600480360360208110156101c457600080fd5b810190808035906020019092919050505061026c565b005b6101e4610279565b005b6000809054906101000a900473ffffffffffffffffffffffffffffffffffffffff1681565b60006102163361028d565b905090565b6000610226336102d9565b905090565b6102343361038c565b565b60085481565b600160009054906101000a900473ffffffffffffffffffffffffffffffffffffffff1681565b6000600854905090565b610276338261051a565b50565b6102823361038c565b61028b33610764565b565b6000600260008373ffffffffffffffffffffffffffffffffffffffff1673ffffffffffffffffffffffffffffffffffffffff168152602001908152602001600020600001549050919050565b60008061031960075461030b6006546102fd600554426108f690919063ffffffff16565b61094090919063ffffffff16565b61098a90919063ffffffff16565b905061038481610376600854600260008873ffffffffffffffffffffffffffffffffffffffff1673ffffffffffffffffffffffffffffffffffffffff1681526020019081526020016000206002015461094090919063ffffffff16565b61098a90919063ffffffff16565b915050919050565b61039581610a10565b60006103a0826102d9565b90506000600260008473ffffffffffffffffffffffffffffffffffffffff1673ffffffffffffffffffffffffffffffffffffffff1681526020019081526020016000206002018190555042600260008473ffffffffffffffffffffffffffffffffffffffff1673ffffffffffffffffffffffffffffffffffffffff16815260200190815260200160002060010181905550600160009054906101000a900473ffffffffffffffffffffffffffffffffffffffff1673ffffffffffffffffffffffffffffffffffffffff1663a9059cbb83836040518363ffffffff1660e01b8152600401808373ffffffffffffffffffffffffffffffffffffffff1673ffffffffffffffffffffffffffffffffffffffff16815260200182815260200192505050602060405180830381600087803b1580156104da57600080fd5b505af11580156104ee573d6000803e3d6000fd5b505050506040513d602081101561050457600080fd5b8101908080519060200190929190505050505050565b6000809054906101000a900473ffffffffffffffffffffffffffffffffffffffff1673ffffffffffffffffffffffffffffffffffffffff1663fc0c546a6040518163ffffffff1660e01b815260040160206040518083038186803b15801561058157600080fd5b505afa158015610595573d6000803e3d6000fd5b505050506040513d60208110156105ab57600080fd5b810190808051906020019092919050505073ffffffffffffffffffffffffffffffffffffffff166323b872dd836000809054906101000a900473ffffffffffffffffffffffffffffffffffffffff16846040518463ffffffff1660e01b8152600401808473ffffffffffffffffffffffffffffffffffffffff1673ffffffffffffffffffffffffffffffffffffffff1681526020018373ffffffffffffffffffffffffffffffffffffffff1673ffffffffffffffffffffffffffffffffffffffff1681526020018281526020019350505050602060405180830381600087803b15801561069757600080fd5b505af11580156106ab573d6000803e3d6000fd5b505050506040513d60208110156106c157600080fd5b8101908080519060200190929190505050610727576040517f08c379a0000000000000000000000000000000000000000000000000000000008152600401808060200182810382526024815260200180610ecb6024913960400191505060405180910390fd5b61073c81600854610b8d90919063ffffffff16565b60088190555061074b82610a10565b6107558183610c15565b610760816001610cb4565b5050565b6000600260008373ffffffffffffffffffffffffffffffffffffffff1673ffffffffffffffffffffffffffffffffffffffff1681526020019081526020016000206000015490506000600260008473ffffffffffffffffffffffffffffffffffffffff1673ffffffffffffffffffffffffffffffffffffffff16815260200190815260200160002060000181905550610808816008546108f690919063ffffffff16565b6008819055506000809054906101000a900473ffffffffffffffffffffffffffffffffffffffff1673ffffffffffffffffffffffffffffffffffffffff1663a9059cbb83836040518363ffffffff1660e01b8152600401808373ffffffffffffffffffffffffffffffffffffffff1673ffffffffffffffffffffffffffffffffffffffff16815260200182815260200192505050602060405180830381600087803b1580156108b657600080fd5b505af11580156108ca573d6000803e3d6000fd5b505050506040513d60208110156108e057600080fd5b8101908080519060200190929190505050505050565b600061093883836040518060400160405280601e81526020017f536166654d6174683a207375627472616374696f6e206f766572666c6f770000815250610d44565b905092915050565b600061098283836040518060400160405280601a81526020017f536166654d6174683a206469766973696f6e206279207a65726f000000000000815250610e04565b905092915050565b60008083141561099d5760009050610a0a565b60008284029050828482816109ae57fe5b0414610a05576040517f08c379a0000000000000000000000000000000000000000000000000000000008152600401808060200182810382526021815260200180610eef6021913960400191505060405180910390fd5b809150505b92915050565b610afd610aac600260008473ffffffffffffffffffffffffffffffffffffffff1673ffffffffffffffffffffffffffffffffffffffff16815260200190815260200160002060000154600260008573ffffffffffffffffffffffffffffffffffffffff1673ffffffffffffffffffffffffffffffffffffffff16815260200190815260200160002060010154420361098a90919063ffffffff16565b600260008473ffffffffffffffffffffffffffffffffffffffff1673ffffffffffffffffffffffffffffffffffffffff16815260200190815260200160002060020154610b8d90919063ffffffff16565b600260008373ffffffffffffffffffffffffffffffffffffffff1673ffffffffffffffffffffffffffffffffffffffff1681526020019081526020016000206002018190555042600260008373ffffffffffffffffffffffffffffffffffffffff1673ffffffffffffffffffffffffffffffffffffffff1681526020019081526020016000206001018190555050565b600080828401905083811015610c0b576040517f08c379a000000000000000000000000000000000000000000000000000000000815260040180806020018281038252601b8152602001807f536166654d6174683a206164646974696f6e206f766572666c6f77000000000081525060200191505060405180910390fd5b8091505092915050565b610c6a82600260008473ffffffffffffffffffffffffffffffffffffffff1673ffffffffffffffffffffffffffffffffffffffff16815260200190815260200160002060000154610b8d90919063ffffffff16565b600260008373ffffffffffffffffffffffffffffffffffffffff1673ffffffffffffffffffffffffffffffffffffffff168152602001908152602001600020600001819055505050565b610cf1610ce0600854610cd2600454426108f690919063ffffffff16565b61098a90919063ffffffff16565b600354610b8d90919063ffffffff16565b600381905550426004819055508015610d2457610d1982600854610b8d90919063ffffffff16565b600881905550610d40565b610d39826008546108f690919063ffffffff16565b6008819055505b5050565b6000838311158290610df1576040517f08c379a00000000000000000000000000000000000000000000000000000000081526004018080602001828103825283818151815260200191508051906020019080838360005b83811015610db6578082015181840152602081019050610d9b565b50505050905090810190601f168015610de35780820380516001836020036101000a031916815260200191505b509250505060405180910390fd5b5060008385039050809150509392505050565b60008083118290610eb0576040517f08c379a00000000000000000000000000000000000000000000000000000000081526004018080602001828103825283818151815260200191508051906020019080838360005b83811015610e75578082015181840152602081019050610e5a565b50505050905090810190601f168015610ea25780820380516001836020036101000a031916815260200191505b509250505060405180910390fd5b506000838581610ebc57fe5b04905080915050939250505056fe596f7520617265206e6f74207374616b696e672074686520726967687420616d6f756e74536166654d6174683a206d756c7469706c69636174696f6e206f766572666c6f77a2646970667358221220d3143c6c819eca89782c6c04454492de30ea1dbc1e9fad2f99ca87bf1d24ac3b64736f6c634300060a0033608060405234801561001057600080fd5b506040516109a23803806109a28339818101604052602081101561003357600080fd5b810190808051906020019092919050505033806000806101000a81548173ffffffffffffffffffffffffffffffffffffffff021916908373ffffffffffffffffffffffffffffffffffffffff1602179055506000809054906101000a900473ffffffffffffffffffffffffffffffffffffffff1673ffffffffffffffffffffffffffffffffffffffff16600073ffffffffffffffffffffffffffffffffffffffff167f8be0079c531659141344cd1fd0a4f28419497f9722a3daafe3b4186f6b6457e060405160405180910390a35080600160006101000a81548173ffffffffffffffffffffffffffffffffffffffff021916908373ffffffffffffffffffffffffffffffffffffffff1602179055505061084f806101536000396000f3fe608060405234801561001057600080fd5b506004361061007d5760003560e01c8063a9059cbb1161005b578063a9059cbb146100f8578063b69ef8a81461015e578063f2fde38b1461017c578063fc0c546a146101c05761007d565b8063715018a6146100825780638da5cb5b1461008c5780638f32d59b146100d6575b600080fd5b61008a61020a565b005b610094610343565b604051808273ffffffffffffffffffffffffffffffffffffffff1673ffffffffffffffffffffffffffffffffffffffff16815260200191505060405180910390f35b6100de61036c565b604051808215151515815260200191505060405180910390f35b6101446004803603604081101561010e57600080fd5b81019080803573ffffffffffffffffffffffffffffffffffffffff169060200190929190803590602001909291905050506103c3565b604051808215151515815260200191505060405180910390f35b61016661052b565b6040518082815260200191505060405180910390f35b6101be6004803603602081101561019257600080fd5b81019080803573ffffffffffffffffffffffffffffffffffffffff16906020019092919050505061060c565b005b6101c8610692565b604051808273ffffffffffffffffffffffffffffffffffffffff1673ffffffffffffffffffffffffffffffffffffffff16815260200191505060405180910390f35b61021261036c565b610284576040517f08c379a00000000000000000000000000000000000000000000000000000000081526004018080602001828103825260138152602001807f4f6e6c79206f776e65722063616e2063616c6c0000000000000000000000000081525060200191505060405180910390fd5b600073ffffffffffffffffffffffffffffffffffffffff166000809054906101000a900473ffffffffffffffffffffffffffffffffffffffff1673ffffffffffffffffffffffffffffffffffffffff167f8be0079c531659141344cd1fd0a4f28419497f9722a3daafe3b4186f6b6457e060405160405180910390a360008060006101000a81548173ffffffffffffffffffffffffffffffffffffffff021916908373ffffffffffffffffffffffffffffffffffffffff160217905550565b60008060009054906101000a900473ffffffffffffffffffffffffffffffffffffffff16905090565b60008060009054906101000a900473ffffffffffffffffffffffffffffffffffffffff1673ffffffffffffffffffffffffffffffffffffffff163373ffffffffffffffffffffffffffffffffffffffff1614905090565b60006103cd61036c565b61043f576040517f08c379a00000000000000000000000000000000000000000000000000000000081526004018080602001828103825260138152602001807f4f6e6c79206f776e65722063616e2063616c6c0000000000000000000000000081525060200191505060405180910390fd5b600160009054906101000a900473ffffffffffffffffffffffffffffffffffffffff1673ffffffffffffffffffffffffffffffffffffffff1663a9059cbb84846040518363ffffffff1660e01b8152600401808373ffffffffffffffffffffffffffffffffffffffff1673ffffffffffffffffffffffffffffffffffffffff16815260200182815260200192505050602060405180830381600087803b1580156104e857600080fd5b505af11580156104fc573d6000803e3d6000fd5b505050506040513d602081101561051257600080fd5b8101908080519060200190929190505050905092915050565b6000600160009054906101000a900473ffffffffffffffffffffffffffffffffffffffff1673ffffffffffffffffffffffffffffffffffffffff166370a08231306040518263ffffffff1660e01b8152600401808273ffffffffffffffffffffffffffffffffffffffff1673ffffffffffffffffffffffffffffffffffffffff16815260200191505060206040518083038186803b1580156105cc57600080fd5b505afa1580156105e0573d6000803e3d6000fd5b505050506040513d60208110156105f657600080fd5b8101908080519060200190929190505050905090565b61061461036c565b610686576040517f08c379a00000000000000000000000000000000000000000000000000000000081526004018080602001828103825260138152602001807f4f6e6c79206f776e65722063616e2063616c6c0000000000000000000000000081525060200191505060405180910390fd5b61068f816106b8565b50565b600160009054906101000a900473ffffffffffffffffffffffffffffffffffffffff1681565b600073ffffffffffffffffffffffffffffffffffffffff168173ffffffffffffffffffffffffffffffffffffffff16141561075b576040517f08c379a000000000000000000000000000000000000000000000000000000000815260040180806020018281038252601d8152602001807f4f776e65722073686f756c64206e6f742062652030206164647265737300000081525060200191505060405180910390fd5b8073ffffffffffffffffffffffffffffffffffffffff166000809054906101000a900473ffffffffffffffffffffffffffffffffffffffff1673ffffffffffffffffffffffffffffffffffffffff167f8be0079c531659141344cd1fd0a4f28419497f9722a3daafe3b4186f6b6457e060405160405180910390a3806000806101000a81548173ffffffffffffffffffffffffffffffffffffffff021916908373ffffffffffffffffffffffffffffffffffffffff1602179055505056fea26469706673582212203cbb38e937db17d2d7b7639fcb43dbd4bfa0725b93be9ee2044fec1e3abef05764736f6c634300060a0033",
  "immutableReferences": {},
  "source": "// SPDX-License-Identifier: GPL-3.0\n\npragma solidity 0.6.10;\n\nimport \"./TokenPool.sol\";\nimport \"./Ownable.sol\";\nimport \"../interfaces/IERC20.sol\";\nimport \"../SafeMath.sol\";\n\ncontract statking{\n      using SafeMath for uint256;\n\n    TokenPool public stakingPool;\n    TokenPool public unlockedPool;\n    mapping (address => UserDetail) UserInfo;\n    uint256 private _totalTimeAmount=0;\n    uint256 private _lastTimeStamp=0;\n\n    //When to stop producing new tokens\n    uint256 private _Initime;\n    uint256 private _duration = 60 days;\n    uint256 private _distributionAmount;\n\n\n    struct UserDetail{\n        uint256 stakingAmount;\n        uint256 LastTime;\n        uint256 UsertimeAmount;\n    }\n    \n    uint256 public totalStakedAmount;\n\n    constructor (IERC20 stakingToken, IERC20 MinningToken, \n        uint256 distributionAmount) public{\n        stakingPool = new TokenPool(stakingToken);\n        unlockedPool=new TokenPool(MinningToken);\n        _Initime=now;\n        _distributionAmount=distributionAmount;\n\n    }\n    \n    //View functions\n    function totalStaked() public view returns(uint256){\n        return (totalStakedAmount);\n    }\n\n    function myStakings() public view returns(uint256){\n        return (_viewUserStaking(msg.sender));\n    }\n\n    function myRewards() public view returns(uint256){\n        return (_rewardsCalculation(msg.sender));\n    }\n\n    //External functions called by user\n    function stake(uint256 amount)external{\n        _stake(msg.sender, amount);\n    }\n\n    function claim()external{\n        _claim(msg.sender);\n    }\n\n    function claimAndUnstake()external{\n        _claim(msg.sender);\n        _unstake(msg.sender);\n    }\n    \n    //Private functions\n    function _stake(address from, uint256 amount)private{\n        require(stakingPool.token().transferFrom(from, address(stakingPool),amount), \n        \"You are not staking the right amount\");\n        totalStakedAmount = totalStakedAmount.add(amount);\n        _updateUserReward(from);\n        _updateUserStaking(amount, from);\n        _updateTotalTimeAmount(amount, true);\n\n    }\n    \n    function _updateUserStaking(uint256 amount, address user) private{\n        //Update staked amount\n        UserInfo[user].stakingAmount=UserInfo[user].stakingAmount.add(amount);\n        \n    }\n\n    function _updateUserReward(address user) private{\n        //Update reward\n        UserInfo[user].UsertimeAmount=UserInfo[user].UsertimeAmount.add(\n            (now-UserInfo[user].LastTime).mul(UserInfo[user].stakingAmount));\n            \n        //Update time\n        UserInfo[user].LastTime=now;\n\n    }\n\n    function _updateTotalTimeAmount(uint256 amount, bool isAdd)private{\n        _totalTimeAmount= _totalTimeAmount.add((now.sub(_lastTimeStamp)).mul(totalStakedAmount));\n        _lastTimeStamp=now;\n        if(isAdd){\n         totalStakedAmount = totalStakedAmount.add(amount);\n        }\n        else{\n         totalStakedAmount = totalStakedAmount.sub(amount);\n\n        }\n\n    }\n\n    function _rewardsCalculation (address user)view private returns(uint256){\n        uint256 _totalAvalAmount = (now.sub(_Initime)).div(_duration).mul(_distributionAmount);\n        return (UserInfo[user].UsertimeAmount).div(totalStakedAmount).mul(_totalAvalAmount);\n\n    }\n\n    function _claim(address user)private {\n        _updateUserReward(user);\n        uint256 reward = _rewardsCalculation(user);\n        UserInfo[user].UsertimeAmount=0;\n        UserInfo[user].LastTime=now;\n        unlockedPool.transfer(user, reward);\n    }\n\n    function _unstake(address user) private {\n        uint256 temptAmount = UserInfo[user].stakingAmount;\n        UserInfo[user].stakingAmount=0;\n        totalStakedAmount = totalStakedAmount.sub(temptAmount);\n        stakingPool.transfer(user, temptAmount);\n\n    }\n\n    function _viewUserStaking(address user)view \n    private returns(uint256){\n        return (UserInfo[user].stakingAmount);\n    }\n\n\n\n\n}",
  "sourcePath": "/Users/yuanboli/Documents/GitHub/OneGift/contracts/liquidity mining/staking.sol",
  "compiler": {
    "name": "solc",
    "version": "0.6.10+commit.00c0fcaf.Emscripten.clang"
  },
  "schemaVersion": "3.4.3",
  "updatedAt": "2021-08-26T11:03:15.451Z",
  "devdoc": {
    "methods": {}
  },
  "userdoc": {
    "methods": {}
  }
}