{
  "contractName": "statking",
  "abi": [
    {
      "inputs": [
        {
          "internalType": "contract IERC20",
          "name": "stakingToken",
          "type": "address"
        },
        {
          "internalType": "contract IERC20",
          "name": "MinningToken",
          "type": "address"
        }
      ],
      "stateMutability": "nonpayable",
      "type": "constructor"
    },
    {
      "inputs": [],
      "name": "lockedPool",
      "outputs": [
        {
          "internalType": "contract TokenPool",
          "name": "",
          "type": "address"
        }
      ],
      "stateMutability": "view",
      "type": "function"
    },
    {
      "inputs": [],
      "name": "stakingPool",
      "outputs": [
        {
          "internalType": "contract TokenPool",
          "name": "",
          "type": "address"
        }
      ],
      "stateMutability": "view",
      "type": "function"
    },
    {
      "inputs": [],
      "name": "totalStakedAmount",
      "outputs": [
        {
          "internalType": "uint256",
          "name": "",
          "type": "uint256"
        }
      ],
      "stateMutability": "view",
      "type": "function"
    },
    {
      "inputs": [],
      "name": "unlockedPool",
      "outputs": [
        {
          "internalType": "contract TokenPool",
          "name": "",
          "type": "address"
        }
      ],
      "stateMutability": "view",
      "type": "function"
    },
    {
      "inputs": [],
      "name": "totalStaked",
      "outputs": [
        {
          "internalType": "uint256",
          "name": "",
          "type": "uint256"
        }
      ],
      "stateMutability": "view",
      "type": "function"
    },
    {
      "inputs": [
        {
          "internalType": "uint256",
          "name": "amount",
          "type": "uint256"
        }
      ],
      "name": "stake",
      "outputs": [],
      "stateMutability": "nonpayable",
      "type": "function"
    }
  ],
  "bytecode": "0x608060405234801561001057600080fd5b506040516115c83803806115c88339818101604052604081101561003357600080fd5b8101908080519060200190929190805190602001909291905050508160405161005b90610244565b808273ffffffffffffffffffffffffffffffffffffffff1673ffffffffffffffffffffffffffffffffffffffff168152602001915050604051809103906000f0801580156100ad573d6000803e3d6000fd5b506000806101000a81548173ffffffffffffffffffffffffffffffffffffffff021916908373ffffffffffffffffffffffffffffffffffffffff160217905550806040516100fa90610244565b808273ffffffffffffffffffffffffffffffffffffffff1673ffffffffffffffffffffffffffffffffffffffff168152602001915050604051809103906000f08015801561014c573d6000803e3d6000fd5b50600160006101000a81548173ffffffffffffffffffffffffffffffffffffffff021916908373ffffffffffffffffffffffffffffffffffffffff1602179055508060405161019a90610244565b808273ffffffffffffffffffffffffffffffffffffffff1673ffffffffffffffffffffffffffffffffffffffff168152602001915050604051809103906000f0801580156101ec573d6000803e3d6000fd5b50600260006101000a81548173ffffffffffffffffffffffffffffffffffffffff021916908373ffffffffffffffffffffffffffffffffffffffff160217905550600060068190555060006004819055505050610251565b6109a280610c2683390190565b6109c6806102606000396000f3fe608060405234801561001057600080fd5b50600436106100625760003560e01c80630c56ae3b14610067578063567e98f9146100b1578063693eb777146100cf5780637d3c0c6514610119578063817b1cd214610163578063a694fc3a14610181575b600080fd5b61006f6101af565b604051808273ffffffffffffffffffffffffffffffffffffffff1673ffffffffffffffffffffffffffffffffffffffff16815260200191505060405180910390f35b6100b96101d4565b6040518082815260200191505060405180910390f35b6100d76101da565b604051808273ffffffffffffffffffffffffffffffffffffffff1673ffffffffffffffffffffffffffffffffffffffff16815260200191505060405180910390f35b610121610200565b604051808273ffffffffffffffffffffffffffffffffffffffff1673ffffffffffffffffffffffffffffffffffffffff16815260200191505060405180910390f35b61016b610226565b6040518082815260200191505060405180910390f35b6101ad6004803603602081101561019757600080fd5b8101908080359060200190929190505050610230565b005b6000809054906101000a900473ffffffffffffffffffffffffffffffffffffffff1681565b60065481565b600160009054906101000a900473ffffffffffffffffffffffffffffffffffffffff1681565b600260009054906101000a900473ffffffffffffffffffffffffffffffffffffffff1681565b6000600654905090565b61023a338261023d565b50565b6000809054906101000a900473ffffffffffffffffffffffffffffffffffffffff1673ffffffffffffffffffffffffffffffffffffffff1663fc0c546a6040518163ffffffff1660e01b815260040160206040518083038186803b1580156102a457600080fd5b505afa1580156102b8573d6000803e3d6000fd5b505050506040513d60208110156102ce57600080fd5b810190808051906020019092919050505073ffffffffffffffffffffffffffffffffffffffff166323b872dd836000809054906101000a900473ffffffffffffffffffffffffffffffffffffffff16846040518463ffffffff1660e01b8152600401808473ffffffffffffffffffffffffffffffffffffffff1673ffffffffffffffffffffffffffffffffffffffff1681526020018373ffffffffffffffffffffffffffffffffffffffff1673ffffffffffffffffffffffffffffffffffffffff1681526020018281526020019350505050602060405180830381600087803b1580156103ba57600080fd5b505af11580156103ce573d6000803e3d6000fd5b505050506040513d60208110156103e457600080fd5b810190808051906020019092919050505061044a576040517f08c379a000000000000000000000000000000000000000000000000000000000815260040180806020018281038252602481526020018061094c6024913960400191505060405180910390fd5b61045f8160065461048790919063ffffffff16565b60068190555061046e8261050f565b610478818361068c565b61048381600161072b565b5050565b600080828401905083811015610505576040517f08c379a000000000000000000000000000000000000000000000000000000000815260040180806020018281038252601b8152602001807f536166654d6174683a206164646974696f6e206f766572666c6f77000000000081525060200191505060405180910390fd5b8091505092915050565b6105fc6105ab600360008473ffffffffffffffffffffffffffffffffffffffff1673ffffffffffffffffffffffffffffffffffffffff16815260200190815260200160002060000154600360008573ffffffffffffffffffffffffffffffffffffffff1673ffffffffffffffffffffffffffffffffffffffff1681526020019081526020016000206001015442036107bb90919063ffffffff16565b600360008473ffffffffffffffffffffffffffffffffffffffff1673ffffffffffffffffffffffffffffffffffffffff1681526020019081526020016000206002015461048790919063ffffffff16565b600360008373ffffffffffffffffffffffffffffffffffffffff1673ffffffffffffffffffffffffffffffffffffffff1681526020019081526020016000206002018190555042600360008373ffffffffffffffffffffffffffffffffffffffff1673ffffffffffffffffffffffffffffffffffffffff1681526020019081526020016000206001018190555050565b6106e182600360008473ffffffffffffffffffffffffffffffffffffffff1673ffffffffffffffffffffffffffffffffffffffff1681526020019081526020016000206000015461048790919063ffffffff16565b600360008373ffffffffffffffffffffffffffffffffffffffff1673ffffffffffffffffffffffffffffffffffffffff168152602001908152602001600020600001819055505050565b6107686107576006546107496005544261084190919063ffffffff16565b6107bb90919063ffffffff16565b60045461048790919063ffffffff16565b60048190555042600581905550801561079b576107908260065461048790919063ffffffff16565b6006819055506107b7565b6107b08260065461084190919063ffffffff16565b6006819055505b5050565b6000808314156107ce576000905061083b565b60008284029050828482816107df57fe5b0414610836576040517f08c379a00000000000000000000000000000000000000000000000000000000081526004018080602001828103825260218152602001806109706021913960400191505060405180910390fd5b809150505b92915050565b600061088383836040518060400160405280601e81526020017f536166654d6174683a207375627472616374696f6e206f766572666c6f77000081525061088b565b905092915050565b6000838311158290610938576040517f08c379a00000000000000000000000000000000000000000000000000000000081526004018080602001828103825283818151815260200191508051906020019080838360005b838110156108fd5780820151818401526020810190506108e2565b50505050905090810190601f16801561092a5780820380516001836020036101000a031916815260200191505b509250505060405180910390fd5b506000838503905080915050939250505056fe596f7520617265206e6f74207374616b696e672074686520726967687420616d6f756e74536166654d6174683a206d756c7469706c69636174696f6e206f766572666c6f77a26469706673582212208ddce8de238b962cad4cee388f1c62e43e06e4ea617add53c4368ebca048493d64736f6c634300060a0033608060405234801561001057600080fd5b506040516109a23803806109a28339818101604052602081101561003357600080fd5b810190808051906020019092919050505033806000806101000a81548173ffffffffffffffffffffffffffffffffffffffff021916908373ffffffffffffffffffffffffffffffffffffffff1602179055506000809054906101000a900473ffffffffffffffffffffffffffffffffffffffff1673ffffffffffffffffffffffffffffffffffffffff16600073ffffffffffffffffffffffffffffffffffffffff167f8be0079c531659141344cd1fd0a4f28419497f9722a3daafe3b4186f6b6457e060405160405180910390a35080600160006101000a81548173ffffffffffffffffffffffffffffffffffffffff021916908373ffffffffffffffffffffffffffffffffffffffff1602179055505061084f806101536000396000f3fe608060405234801561001057600080fd5b506004361061007d5760003560e01c8063a9059cbb1161005b578063a9059cbb146100f8578063b69ef8a81461015e578063f2fde38b1461017c578063fc0c546a146101c05761007d565b8063715018a6146100825780638da5cb5b1461008c5780638f32d59b146100d6575b600080fd5b61008a61020a565b005b610094610343565b604051808273ffffffffffffffffffffffffffffffffffffffff1673ffffffffffffffffffffffffffffffffffffffff16815260200191505060405180910390f35b6100de61036c565b604051808215151515815260200191505060405180910390f35b6101446004803603604081101561010e57600080fd5b81019080803573ffffffffffffffffffffffffffffffffffffffff169060200190929190803590602001909291905050506103c3565b604051808215151515815260200191505060405180910390f35b61016661052b565b6040518082815260200191505060405180910390f35b6101be6004803603602081101561019257600080fd5b81019080803573ffffffffffffffffffffffffffffffffffffffff16906020019092919050505061060c565b005b6101c8610692565b604051808273ffffffffffffffffffffffffffffffffffffffff1673ffffffffffffffffffffffffffffffffffffffff16815260200191505060405180910390f35b61021261036c565b610284576040517f08c379a00000000000000000000000000000000000000000000000000000000081526004018080602001828103825260138152602001807f4f6e6c79206f776e65722063616e2063616c6c0000000000000000000000000081525060200191505060405180910390fd5b600073ffffffffffffffffffffffffffffffffffffffff166000809054906101000a900473ffffffffffffffffffffffffffffffffffffffff1673ffffffffffffffffffffffffffffffffffffffff167f8be0079c531659141344cd1fd0a4f28419497f9722a3daafe3b4186f6b6457e060405160405180910390a360008060006101000a81548173ffffffffffffffffffffffffffffffffffffffff021916908373ffffffffffffffffffffffffffffffffffffffff160217905550565b60008060009054906101000a900473ffffffffffffffffffffffffffffffffffffffff16905090565b60008060009054906101000a900473ffffffffffffffffffffffffffffffffffffffff1673ffffffffffffffffffffffffffffffffffffffff163373ffffffffffffffffffffffffffffffffffffffff1614905090565b60006103cd61036c565b61043f576040517f08c379a00000000000000000000000000000000000000000000000000000000081526004018080602001828103825260138152602001807f4f6e6c79206f776e65722063616e2063616c6c0000000000000000000000000081525060200191505060405180910390fd5b600160009054906101000a900473ffffffffffffffffffffffffffffffffffffffff1673ffffffffffffffffffffffffffffffffffffffff1663a9059cbb84846040518363ffffffff1660e01b8152600401808373ffffffffffffffffffffffffffffffffffffffff1673ffffffffffffffffffffffffffffffffffffffff16815260200182815260200192505050602060405180830381600087803b1580156104e857600080fd5b505af11580156104fc573d6000803e3d6000fd5b505050506040513d602081101561051257600080fd5b8101908080519060200190929190505050905092915050565b6000600160009054906101000a900473ffffffffffffffffffffffffffffffffffffffff1673ffffffffffffffffffffffffffffffffffffffff166370a08231306040518263ffffffff1660e01b8152600401808273ffffffffffffffffffffffffffffffffffffffff1673ffffffffffffffffffffffffffffffffffffffff16815260200191505060206040518083038186803b1580156105cc57600080fd5b505afa1580156105e0573d6000803e3d6000fd5b505050506040513d60208110156105f657600080fd5b8101908080519060200190929190505050905090565b61061461036c565b610686576040517f08c379a00000000000000000000000000000000000000000000000000000000081526004018080602001828103825260138152602001807f4f6e6c79206f776e65722063616e2063616c6c0000000000000000000000000081525060200191505060405180910390fd5b61068f816106b8565b50565b600160009054906101000a900473ffffffffffffffffffffffffffffffffffffffff1681565b600073ffffffffffffffffffffffffffffffffffffffff168173ffffffffffffffffffffffffffffffffffffffff16141561075b576040517f08c379a000000000000000000000000000000000000000000000000000000000815260040180806020018281038252601d8152602001807f4f776e65722073686f756c64206e6f742062652030206164647265737300000081525060200191505060405180910390fd5b8073ffffffffffffffffffffffffffffffffffffffff166000809054906101000a900473ffffffffffffffffffffffffffffffffffffffff1673ffffffffffffffffffffffffffffffffffffffff167f8be0079c531659141344cd1fd0a4f28419497f9722a3daafe3b4186f6b6457e060405160405180910390a3806000806101000a81548173ffffffffffffffffffffffffffffffffffffffff021916908373ffffffffffffffffffffffffffffffffffffffff1602179055505056fea26469706673582212203cbb38e937db17d2d7b7639fcb43dbd4bfa0725b93be9ee2044fec1e3abef05764736f6c634300060a0033",
  "immutableReferences": {},
  "source": "// SPDX-License-Identifier: GPL-3.0\n\npragma solidity 0.6.10;\n\nimport \"./TokenPool.sol\";\nimport \"./Ownable.sol\";\nimport \"../interfaces/IERC20.sol\";\nimport \"../SafeMath.sol\";\n\ncontract statking{\n      using SafeMath for uint256;\n\n    TokenPool public stakingPool;\n    TokenPool public lockedPool;\n    TokenPool public unlockedPool;\n    mapping (address => UserDetail) UserInfo;\n    uint256 private totalTimeAmount;\n    uint256 private lastTimeStamp;\n\n\n    struct UserDetail{\n        uint256 stakingAmount;\n        uint256 LastTime;\n        uint256 UsertimeAmount;\n    }\n    \n    uint256 public totalStakedAmount;\n\n    constructor (IERC20 stakingToken, IERC20 MinningToken) public{\n        stakingPool = new TokenPool(stakingToken);\n        lockedPool=new TokenPool(MinningToken);\n        unlockedPool=new TokenPool(MinningToken);\n        totalStakedAmount=0;\n        totalTimeAmount=0;\n    }\n    \n    function totalStaked() public view returns(uint256){\n        return totalStakedAmount;\n    }\n\n    function stake(uint256 amount)external{\n        _stake(msg.sender, amount);\n    }\n    \n    function _stake(address from, uint256 amount)private{\n        require(stakingPool.token().transferFrom(from, address(stakingPool),amount), \n        \"You are not staking the right amount\");\n        totalStakedAmount = totalStakedAmount.add(amount);\n        _updateUserReward(from);\n        _updateUserStaking(amount, from);\n        _updateTotalTimeAmount(amount, true);\n\n    }\n    \n    function _updateUserStaking(uint256 amount, address user) private{\n        //Update staked amount\n        UserInfo[user].stakingAmount=UserInfo[user].stakingAmount.add(amount);\n        \n    }\n\n    function _updateUserReward(address user) private{\n        //Update reward\n        UserInfo[user].UsertimeAmount=UserInfo[user].UsertimeAmount.add(\n            (now-UserInfo[user].LastTime).mul(UserInfo[user].stakingAmount));\n            \n        //Update time\n        UserInfo[user].LastTime=now;\n\n    }\n\n    function _updateTotalTimeAmount(uint256 amount, bool isAdd)private{\n        totalTimeAmount= totalTimeAmount.add((now.sub(lastTimeStamp)).mul(totalStakedAmount));\n        lastTimeStamp=now;\n        if(isAdd){\n         totalStakedAmount = totalStakedAmount.add(amount);\n        }\n        else{\n         totalStakedAmount = totalStakedAmount.sub(amount);\n\n        }\n\n    }\n\n}",
  "sourcePath": "/Users/yuanboli/Documents/GitHub/OneGift/contracts/liquidity mining/staking.sol",
  "compiler": {
    "name": "solc",
    "version": "0.6.10+commit.00c0fcaf.Emscripten.clang"
  },
  "schemaVersion": "3.4.3",
  "updatedAt": "2021-08-26T09:20:14.561Z",
  "devdoc": {
    "methods": {}
  },
  "userdoc": {
    "methods": {}
  }
}